:1000000071C00000FEC000008CC000008AC000006B
:1000100088C0000086C0000084C0000082C00000CC
:1000200080C000007EC000007CC000007AC00000DC
:1000300078C0000076C0000074C0000072C00000EC
:1000400070C000006EC000006CC000006AC00000FC
:1000500068C0000066C0000064C0000062C000000C
:1000600060C000005EC000005CC000005AC000001C
:1000700058C0000056C0000054C0000052C000002C
:1000800050C000004EC000004CC000004AC000003C
:1000900048C0000046C0000044C0000042C000004C
:1000A00040C000003EC00000F4C000003AC00000A4
:1000B00038C0000036C0000034C0000032C000006C
:1000C00030C000002EC000002CC000002AC000007C
:1000D00028C0000026C0000024C0000022C000008C
:1000E00020C0000011241FBECFEFD1E2DEBFCDBF84
:1000F00000E00CBF12E0A0E0B2E0E2E9F4E000E0D2
:100100000BBF02C007900D92AC30B107D9F722E0C7
:10011000ACE0B2E001C01D92A031B207E1F763D0BC
:10012000B6C16ECF02C01092D6000099FCCF84E613
:1001300090E0D0D030C108958630910529F48CE943
:100140009FEFC8D052C108958830910529F484E604
:1001500090E0C0D04AC108958B30910529F480E029
:1001600090E0B8D06BC10895181619060CF43DC183
:1001700008958FE493EC9093A9008093A8001092C7
:10018000A0008AE08093A10082E08093720008952D
:100190007894F1D095D0D5D0ECDF02D011B8089585
:1001A0008FEF84B915B80895883060F421E030E00D
:1001B000A90102C0440F551F8A95E2F7CA0193B105
:1001C000892B85B90895883068F421E030E0A901D1
:1001D00002C0440F551F8A95E2F7CA01809593B17A
:1001E000892385B90895D4DF9DDF80910E02909117
:1001F0000F0280FD03C087E0D7DFF7CF87E0E3DFA2
:10020000F4CF1F920F920FB60F9211240BB60F92DC
:100210002F933F934F935F936F937F938F939F930E
:10022000AF93BF93EF93FF9380910C0290910D02D7
:100230002091000230910102821B930B0797B4F0CA
:1002400080910C0290910D02909301028093000224
:1002500080910E0290910F02019690930F0280936D
:100260000E0280910E0290910F0266DFFF91EF91D6
:10027000BF91AF919F918F917F916F915F914F91BE
:100280003F912F910F900BBE0F900FBE0F901F90BC
:1002900018951F920F920FB60F9211248F939F9370
:1002A00080910C0290910D02019690930D02809323
:1002B0000C029F918F910F900FBE0F901F90189579
:1002C0008FEF84B915B883EA8093800082E0809331
:1002D0008100089518161906ACF410928B00109244
:1002E0008A009C01220F331F880F991F880F991FC6
:1002F000880F991F820F931F4796909389008093D0
:1003000088000895992394F410928900109288002F
:1003100046EFBC0146039001479F300D1124C901EF
:10032000479690938B0080938A000895892B41F41F
:10033000109289001092880010928B0010928A000F
:10034000089583E08093690081E08DBB0895AC013E
:1003500020E030E00CC09091D00095FFFCCFFA0176
:10036000E20FF31F90819093D6002F5F3F4F28300C
:1003700031058CF3089587E690E09093D500809343
:10038000D40088E18093D10086E08093D20082E09F
:1003900092E0DDCF0895CF93DF93CDB7DEB72997F5
:1003A0000FB6F894DEBF0FBECDBFFE01319689E0D7
:1003B000DF011D928A95E9F78EE789838FE08A83B2
:1003C00091E09B839C839D838FEF8E838EEE8F8342
:1003D0008FEE8887CF01BBDF29960FB6F894DEBF7A
:1003E0000FBECDBFDF91CF910895CF93DF93CDB7EF
:1003F000DEB729970FB6F894DEBF0FBECDBFCE0192
:10040000019629E0FC0111922A95E9F72EE729834C
:100410002FE02A8321E02C8322E02D832FEF2E83EF
:100420002EEE2F832FEE288792DF29960FB6F894B1
:10043000DEBF0FBECDBFDF91CF910895CF93DF9385
:10044000CDB7DEB729970FB6F894DEBF0FBECDBF8C
:10045000CE01019629E0FC0111922A95E9F72EE7D9
:1004600029832FE02A8321E02C8323E02D832FEFA3
:100470002E832DEE2F832FEE288769DF29960FB666
:10048000F894DEBF0FBECDBFDF91CF910895F894F1
:02049000FFCF9C
:0C049200F6FF7E0600001EFFDCEF0000FD
:00000001FF
