:1000000071C0000086C0000084C0000082C00000F3
:1000100080C000007EC000007CC000007AC00000EC
:1000200078C0000076C0000074C0000072C00000FC
:1000300070C000006EC000006CC000006AC000000C
:1000400068C0000066C0000064C0000062C000001C
:1000500060C000005EC000005CC000005AC000002C
:1000600058C0000056C0000054C0000052C000003C
:1000700050C000004EC000004CC000004AC000004C
:1000800048C0000046C0000044C0000042C000005C
:1000900040C000003EC000003CC000003AC000006C
:1000A00038C0000036C0000034C0000032C000007C
:1000B00030C000002EC000002CC000002AC000008C
:1000C00028C0000026C0000024C0000022C000009C
:1000D00020C000001EC000001CC000001AC00000AC
:1000E00018C0000011241FBECFEFD1E2DEBFCDBF8C
:1000F00000E00CBF12E0A0E0B2E0E0E6F3E000E0D8
:100100000BBF02C007900D92AA30B107D9F702D0F9
:1001100025C176CF97D041D011B802C01092D60039
:100120000099FCCF84E690E042D09CD02FEF87E886
:1001300093E1215080409040E1F700C00000C0E012
:10014000D0E002C01092D6000099FCCF2196C630B4
:10015000D10529F48CE99FEF2AD0AED014C0C83065
:10016000D10529F484E690E022D0A6D00CC0CB3093
:10017000D10529F480E090E01AD0C7D004C01C1645
:100180001D060CF499D02FEF83EC99E021508040AC
:100190009040E1F700C00000D7CF8FEF84B915B8C9
:1001A00083EA8093800082E080938100089518168E
:1001B0001906ACF410928B0010928A009C01220F59
:1001C000331F880F991F880F991F880F991F820F5F
:1001D000931F4796909389008093880008959923F0
:1001E00094F4109289001092880046EFBC014603F7
:1001F0009001479F300D1124C901479690938B00C1
:1002000080938A000895892B41F4109289001092FE
:10021000880010928B0010928A000895AC0120E0B3
:1002200030E00CC09091D00095FFFCCFFA01E20FB6
:10023000F31F90819093D6002F5F3F4F28303105F8
:100240008CF3089587E690E09093D5008093D400D6
:1002500088E18093D10086E08093D20080E092E034
:10026000DDCF0895CF93DF93CDB7DEB729970FB6D3
:10027000F894DEBF0FBECDBFFE01319689E0DF01ED
:100280001D928A95E9F78EE789838FE08A8391E052
:100290009B839C839D838FEF8E838EEE8F838FEE67
:1002A0008887CF01BBDF29960FB6F894DEBF0FBE5B
:1002B000CDBFDF91CF910895CF93DF93CDB7DEB758
:1002C00029970FB6F894DEBF0FBECDBFCE010196C1
:1002D00029E0FC0111922A95E9F72EE729832FE006
:1002E0002A8321E02C8322E02D832FEF2E832EEE14
:1002F0002F832FEE288792DF29960FB6F894DEBF62
:100300000FBECDBFDF91CF910895CF93DF93CDB7CF
:10031000DEB729970FB6F894DEBF0FBECDBFCE0172
:10032000019629E0FC0111922A95E9F72EE729832D
:100330002FE02A8321E02C8323E02D832FEF2E83CF
:100340002DEE2F832FEE288769DF29960FB6F894BC
:10035000DEBF0FBECDBFDF91CF910895F894FFCFE0
:0A0360007E0600001EFFDCEF000027
:00000001FF
